:100000000C9424010C9441010C9441010C94410185
:100010000C9441010C94C6020C9441010C944101D2
:100020000C9441010C9441010C9441010C94410148
:100030000C9441010C9441010C9441010C94410138
:100040000C9441010C9441010C9441010C94410128
:100050000C9441010C9441010C9441010C94410118
:100060000C9441010C944101000000000000005F6D
:1000700000000007000700147F147F14242A7F2A41
:10008000122313086462364955225000050300000C
:10009000001C2241000041221C0014083E081408E4
:1000A000083E0808005030000008080808080060F2
:1000B00060000020100804023E5149453E00427F86
:1000C000400042615149462141454B311814127F8D
:1000D0001027454545393C4A494930017109050316
:1000E0003649494936064949291E0036360000007E
:1000F0005636000008142241001414141414004150
:100100002214080201510906324979413E7E11113B
:10011000117E7F494949363E414141227F4141227A
:100120001C7F494949417F090909013E4149497AF2
:100130007F0808087F00417F41002040413F017F48
:10014000081422417F404040407F020C027F7F0420
:1001500008107F3E4141413E7F090909063E415159
:10016000215E7F09192946464949493101017F012C
:10017000013F4040403F1F2040201F3F4038403F4C
:100180006314081463070870080761514945430068
:100190007F41410002040810200041417F00040219
:1001A0000102044040404040000102040020545439
:1001B00054787F48444438384444442038444448C0
:1001C0007F3854545418087E0901020C5252523E92
:1001D0007F0804047800447D40002040443D007FB7
:1001E0001028440000417F40007C041804787C08FB
:1001F00004047838444444387C1414140808141453
:10020000187C7C080404084854545420043F44409B
:10021000203C4040207C1C2040201C3C4030403C86
:1002200044281028440C5050503C4464544C440022
:100230000836410000007F00000041360800100829
:10024000081008000000000011241FBECFEFD8E006
:10025000DEBFCDBF11E0A0E0B1E0EEECF5E002C002
:1002600005900D92A030B107D9F722E0A0E0B1E0EF
:1002700001C01D92AB3FB207E1F70E94A6020C94A9
:10028000E5020C9400002A98611102C0289A15C05A
:10029000289813C0AC01022E02C0559547950A94C8
:1002A000E2F740FF02C02B9A01C02B982D9A2D989F
:1002B0002150310978F72A9A089527E030E090E03C
:1002C000E9CFCF93DF93229A249A209A239A259AF2
:1002D0002C9A2A9A8FE39CE90197F1F700C000005D
:1002E0002C989FEF2AE683E0915020408040E1F770
:1002F00000C000002C9A2A9861E081E20E9443012C
:1003000061E083E10E94430161E086E00E944301D5
:1003100061E082EC0E94430161E080E20E944301BF
:1003200061E089E00E94430161E080E80E944301AE
:1003300061E080E40E944301C8EFD1E060E080E02A
:100340000E9443012197D1F761E088E00E944301B8
:1003500061E08CE00E944301DF91CF910895299ADA
:100360000895262F26952695269590E034E5239F1F
:10037000800D911D1124442379F0FC01EF5FFE4FA5
:10038000677081E090E002C0880F991F6A95E2F7DC
:100390009081892B80830895FC01EF5FFE4F677089
:1003A00081E090E002C0880F991F6A95E2F780957E
:1003B00090818923808308955F926F927F928F92BC
:1003C0009F92AF92BF92CF92DF92EF92FF920F93E4
:1003D0001F93CF93DF93562E262F30E04901880CD0
:1003E000991C880C991C820E931E181419040CF089
:1003F0005DC08901000F111F000F111F000F111F99
:10040000021B130B612CA82EB12CC50180975C0137
:10041000AA0CBB1CAA0CBB1CA80EB91E0F2EFAEF0F
:10042000CF2EF2E0DF2EF02D0F2EF9EFEF2EF2E0BF
:10043000FF2EF02D2DC0FE01249130E0872D652D7B
:100440000E94D90202C0359527958A95E2F720FFD0
:100450000AC0F6016081670DF701808141E0860DD9
:100460000E94B10109C0F6016081670DF70180812A
:1004700040E0860D0E94B1017394872D90E08017B3
:100480009107CCF26394862D90E08815990574F459
:1004900010161106BCF7862D652D0E94D902E501C4
:1004A000C80FD11DC859DF4F712CC5CF8091F902FB
:1004B00091E0980F852D880F880F850D890F843561
:1004C00018F48093F9020EC01092F902EAEFF2E0FC
:1004D000808191E0980F852D880F880F880F8519EE
:1004E000890F80838091FA02803320F01092F90204
:1004F0001092FA02DF91CF911F910F91FF90EF9030
:10050000DF90CF90BF90AF909F908F907F906F9033
:100510005F9008950F931F93CF93DF9361E080E87E
:100520000E94430161E080E40E944301C1E0D1E008
:1005300009EF12E060E089910E944301C017D107E2
:10054000C9F7DF91CF911F910F910895219A1AB8A1
:10055000E8E6F0E0808184608083EDE6F0E0808171
:10056000806780830E9461010E94AF010E948A021D
:100570007894809100018130E1F762E081E60E9489
:10058000DC010E948A0210920001F3CF1F920F92A9
:100590000FB60F9211248F9389B14D9B03C081E058
:1005A0008093000189B18F910F900FBE0F901F9023
:1005B0001895991B79E004C0991F961708F0961BAF
:0E05C000881F7A95C9F780950895F894FFCFAB
:00000001FF
