:100000000C9420020C943D020C943D020C943D0291
:100010000C943D020C94A6050C943D020C943D02F8
:100020000C943D020C943D020C943D020C943D0254
:100030000C943D020C943D020C943D020C943D0244
:100040000C943D020C943D020C943D020C943D0234
:100050000C943D020C943D020C943D020C943D0224
:100060000C943D020C943D020000000000000000D2
:100070000000000000000000000000000000000080
:10008000000C04040606060604040C08183060C0C0
:100090000000000000000000000000000000000060
:1000A0000000000000000000000000000000000050
:1000B0000000000000000000000000000000000040
:1000C0000000000000000000000000000000000030
:1000D00000000000000000000000000080E0F0F8D8
:1000E000FCFCFEFFFFFFF303030202060400000016
:1000F0000000000000000000000000000000000000
:1001000000000000000000000000000000000000EF
:10011000000000000000007CFEC3818101030F0E7F
:1001200000000000C0FC0F073FF880000000F0FC5A
:10013000F8E0800C3F3F0CC0F0F8FC000001FFFF2E
:10014000070100C0F8FE0E03030103030EFCF8C014
:10015000000103FF0F3EF0C0000103FF0301000098
:100160000000000000000000000000F0800101031A
:1001700007CFFE7C0080E0FE0F0604040407BFFCEE
:10018000E0807F7F3F0F43E0F8F0E1870F0F010031
:100190000000FFFFC00000073FFFC080000000809C
:1001A000C0FF3F07000080FF800000073EF0C0FF57
:1001B000000000000000000000000000000000013E
:1001C0000101010101010000010101010100000024
:1001D0000041C1C1C14140663E7EDE1E0F070300E3
:1001E0000000000000010101010100000000000109
:1001F00001010101010000000001010101010000F5
:1002000000000101000000000000000000000000EC
:1002100000000000000000000000000000000000DE
:1002200000000000000000000000000000000103CA
:10023000060C181030206060404040600000000054
:1002400000000000000000000000000000000000AE
:10025000000000000000000000000000000000009E
:10026000000000000000005F00000007000700140D
:100270007F147F14242A7F2A1223130864623649CC
:100280005522500005030000001C224100004122BD
:100290001C0014083E081408083E080800503000EE
:1002A0000008080808080060600000201008040228
:1002B0003E5149453E00427F40004261514946213E
:1002C00041454B311814127F1027454545393C4AAA
:1002D00049493001710905033649494936064949FA
:1002E000291E003636000000563600000814224150
:1002F00000141414141400412214080201510906B8
:10030000324979413E7E1111117E7F494949363E7D
:10031000414141227F4141221C7F494949417F0996
:100320000909013E4149497A7F0808087F00417F59
:1003300041002040413F017F081422417F4040405E
:10034000407F020C027F7F0408107F3E4141413E06
:100350007F090909063E4151215E7F091929464658
:100360004949493101017F01013F4040403F1F2081
:1003700040201F3F4038403F631408146307087053
:1003800008076151494543007F41410002040810BC
:10039000200041417F0004020102044040404040EF
:1003A000000102040020545454787F4844443838F3
:1003B00044444420384444487F3854545418087EF8
:1003C0000901020C5252523E7F0804047800447D19
:1003D00040002040443D007F1028440000417F4001
:1003E000007C041804787C080404783844444438B9
:1003F0007C14141408081414187C7C08040408489D
:1004000054545420043F4440203C4040207C1C2055
:1004100040201C3C4030403C44281028440C5050A4
:10042000503C4464544C44000836410000007F00B6
:100430000000413608001008081008000000000005
:1004400011241FBECFEFD8E0DEBFCDBF11E0A0E08A
:10045000B1E0EEEFF0E102C005900D92AC35B107CE
:10046000D9F723E0ACE5B1E001C01D92A735B20792
:10047000E1F70E94F8040C947D080C9400002A987F
:10048000611102C0289A15C0289813C0AC01022E31
:1004900002C0559547950A94E2F740FF02C02B9A97
:1004A00001C02B982D9A2D982150310978F72A9A5E
:1004B000089527E030E090E0E9CFCF93DF93229AD0
:1004C000249A209A239A259A2C9A2A9A8FE39CE9B7
:1004D0000197F1F700C000002C989FEF2AE683E017
:1004E000915020408040E1F700C000002C9A2A98EB
:1004F00061E081E20E943F0261E083E10E943F02ED
:1005000061E086E00E943F0261E082EC0E943F02CF
:1005100061E080E20E943F0261E089E00E943F02C8
:1005200061E080E80E943F0261E080E40E943F02B7
:10053000C8EFD1E060E080E00E943F022197D1F750
:1005400061E088E00E943F0261E08CE00E943F028F
:10055000DF91CF910895299A0895262F2695269503
:10056000269590E034E5239F800D911D11244423AE
:1005700079F0FC01E35AFE4F677081E090E002C021
:10058000880F991F6A95E2F79081892B80830895DF
:10059000FC01E35AFE4F677081E090E002C0880FD3
:1005A000991F6A95E2F78095908189238083089549
:1005B000FC01ADE5B1E025E533E084918D93319602
:1005C000A217B307D1F708952F923F924F925F92EF
:1005D0006F927F928F929F92AF92BF92CF92DF9253
:1005E000EF92FF920F931F93CF93DF9300D01F9250
:1005F000CDB7DEB7C22ED12C3601660C771C660C47
:10060000771C6C0C7D1C161417040CF055C0498324
:100610005601AA0CBB1CAA0CBB1CAA0CBB1C362E78
:10062000812C912C482E512CC20180972C01440C16
:10063000551C440C551C480E591E22242394C401F9
:10064000B6010E945508F201E60FF71FE05AFD4F70
:10065000E4911A141B0444F519811B821A82EE2EB0
:10066000F12C8A819B81B6010E945508C70102C006
:10067000959587956A95E2F780FF06C0402F612F18
:10068000832D0E94AD0207C0422D011140E0612F71
:10069000832D0E94AD028A819B8101969B838A8370
:1006A0001F5F8A159B05E9F69FEF891A990A339413
:1006B0008614970409F0C3CF0F900F900F90DF912D
:1006C000CF911F910F91FF90EF90DF90CF90BF904F
:1006D000AF909F908F907F906F905F904F903F90E2
:1006E0002F9008959F92AF92BF92CF92DF92EF9298
:1006F000FF920F931F93CF93DF93E62EB42E922E8B
:10070000D02F6C01FF24F394A12C25C00D2F292D8F
:100710004B2D6E2D0E94E40215E01E0D8B2D90E0F6
:100720009C01285F3F4F821793076CF408E00B0D84
:10073000CB2D4F2DD1114A2D6C2F812F0E94AD0250
:10074000CF5FC013F6CF86E0E80EEFE4EE1518F4A5
:10075000F8E0BF0EE12CF60181916F018111D6CF37
:10076000DF91CF911F910F91FF90EF90DF90CF908D
:10077000BF90AF909F900895EDE5F1E025E533E05F
:100780009FEF882311F0908301C010823196E21709
:10079000F307B9F708950F931F93CF93DF9361E0A9
:1007A00080E80E943F0261E080E40E943F02CDE5C4
:1007B000D1E005E513E060E089910E943F02C01797
:1007C000D107C9F7DF91CF911F910F910895CF9273
:1007D000DF92EF92FF920F931F93CF93DF9380E00E
:1007E0000E94BC0301E021E040E066E0809100014E
:1007F000909101010E9472030F2EF2E0CF2EF1E0E2
:10080000DF2EF02DCCE0EE24E394F12CD1E010E0CB
:10081000F601819191916F010D2F20910A01309184
:100820000B012E153F0509F4012F2D2F4C2F612FA1
:100830000E947203FFEFEF1AFF0AC45FC03341F753
:100840000E94CB03DF91CF911F910F91FF90EF900A
:10085000DF90CF9008950F9380E00E94BC0301E0E9
:1008600021E040E06FE08CE091E00E94720321E023
:100870004FE060E086E191E00E94720321E049E1EF
:1008800060E083E291E00E94720321E043E260E0D5
:100890008AE291E00E9472030F9108958F929F92D5
:1008A000AF92BF92FF920F931F93CF93DF9360910C
:1008B000780070917900072E000C880B990B0E942C
:1008C000040720E030E040EA5BE30E94E8079B0178
:1008D000AC0160E070E088E492E40E945A0620E0F7
:1008E00030E040E251E40E94ED059B01AC0160E084
:1008F00070E080E89FE30E945A062AE037ED4FE758
:1009000053E40E94E8070E943F070E94CC064B0177
:100910005C0180E00E94BC03C40164E670E00E94B8
:100920005508072E000C880B990B0E9404070E94A3
:100930003F070E94D306F62E2CE92603E00111247E
:10094000C80DD91DCE016AE070E00E945508072E3F
:10095000000C880B990B0E9404070E943F070E941D
:10096000D306162FBE013AE0139F601971091124B6
:10097000072E000C880B990B0E9404070E943F076A
:100980004B015C0101E021E040E162E180E38F0D79
:100990000E94E40221E040E168E180E3810F0E94CF
:1009A000E402C501B4010E94D306862F21E040E194
:1009B0006EE1805D0E94E40221E040E16AE285E3AD
:1009C00091E00E9472030E94CB038FEF94E32CE02E
:1009D000815090402040E1F700C00000DF91CF91AE
:1009E0001F910F91FF90BF90AF909F908F900895AF
:1009F000219A1AB817B8E8E6F0E080818460808315
:100A0000EDE6F0E0808180678083EAE7F0E08081B6
:100A100087608083ACE7B0E08C9182648C938C918A
:100A20008F778C93ABE7B0E08C91887F8C9380813B
:100A3000806E80830E945D020E94AB020E94CB0305
:100A40007894EE24E3946894FF24F2F801E010E037
:100A5000C3E0D0E080910801823001F118F48130C8
:100A600039F0F8CF833081F1843009F46CC0F2CFD3
:100A700080910A0190910B018330910529F4109324
:100A80000B0100930A0105C0019690930B0180931E
:100A90000A01F09208010E94E703DCCF80910A016D
:100AA00090910B018130910529F4D0930B01C093F3
:100AB0000A0105C0019790930B0180930A01F092FF
:100AC00008010E94E703C6CF80910901882389F1BC
:100AD00080910A0190910B018130910581F410926F
:100AE00009011092080180915C01882309F4B2CFBA
:100AF0000E944E0480915C018111FACFABCF82300D
:100B0000910549F410920901109208010E942B04EA
:100B10000E94CB039FCF039709F09CCF109209014D
:100B20001092080188E690E00E94D8020E94CB0350
:100B300091CF80E00E94BC03E0920901F09208018D
:100B40000E94E70387CF0E94E70384CF1F920F9292
:100B50000FB60F9211242F938F939F934C9B0EC02F
:100B60002FEF86E791E0215080409040E1F700C0F0
:100B700000004C9B03C081E0809308014D9B15C091
:100B80002FEF86E791E0215080409040E1F700C0D0
:100B900000004D9B0AC081E090915C01911180E0C2
:100BA00080935C0183E0809308014E9B0EC02FEF81
:100BB00086E791E0215080409040E1F700C00000BE
:100BC0004E9B03C082E0809308019F918F912F91EB
:100BD0000F900FBE0F901F9018955058BB27AA2753
:100BE0000E9405060C9496070E94880738F00E9420
:100BF0008F0720F039F49F3F19F426F40C948507F1
:100C00000EF4E095E7FB0C945607E92F0E94A70726
:100C100058F3BA17620773078407950720F079F431
:100C2000A6F50C94E1070EF4E0950B2EBA2FA02D3B
:100C30000B01B90190010C01CA01A0011124FF2789
:100C4000591B99F0593F50F4503E68F11A16F04084
:100C5000A22F232F342F4427585FF3CF4695379583
:100C60002795A795F0405395C9F77EF41F16BA0B48
:100C7000620B730B840BBAF09150A1F0FF0FBB1FF6
:100C8000661F771F881FC2F70EC0BA0F621F731F3F
:100C9000841F48F4879577956795B795F7959E3F9C
:100CA00008F0B0CF9395880F08F09927EE0F97952D
:100CB000879508950E946E060C9496070E948F07F0
:100CC00058F00E94880740F029F45F3F29F00C9407
:100CD000560751110C94E2070C9485070E94A70750
:100CE00068F39923B1F3552391F3951B550BBB275B
:100CF000AA2762177307840738F09F5F5F4F220FA0
:100D0000331F441FAA1FA9F335D00E2E3AF0E0E896
:100D100032D091505040E695001CCAF72BD0FE2FE0
:100D200029D0660F771F881FBB1F26173707480774
:100D3000AB07B0E809F0BB0B802DBF01FF2793582C
:100D40005F4F3AF09E3F510578F00C9456070C9493
:100D5000E2075F3FE4F3983ED4F386957795679575
:100D6000B795F7959F5FC9F7880F911D9695879561
:100D700097F90895E1E0660F771F881FBB1F621780
:100D800073078407BA0720F0621B730B840BBA0B3E
:100D9000EE1F88F7E09508950E94D3066894B1117C
:100DA0000C94E20708950E94AF0788F09F5798F0CF
:100DB000B92F9927B751B0F0E1F0660F771F881F60
:100DC000991F1AF0BA95C9F714C0B13091F00E947A
:100DD000E107B1E008950C94E107672F782F882789
:100DE000B85F39F0B93FCCF3869577956795B395A1
:100DF000D9F73EF490958095709561957F4F8F4F10
:100E00009F4F0895E89409C097FB3EF49095809514
:100E1000709561957F4F8F4F9F4F9923A9F0F92FC0
:100E200096E9BB279395F695879577956795B7953E
:100E3000F111F8CFFAF4BB0F11F460FF1BC06F5F24
:100E40007F4F8F4F9F4F16C0882311F096E911C036
:100E5000772321F09EE8872F762F05C0662371F057
:100E600096E8862F70E060E02AF09A95660F771F6B
:100E7000881FDAF7880F9695879597F908950E944D
:100E8000C90790F09F3748F4911116F00C94E207CF
:100E900060E070E080E89FEB089526F41B16611D6A
:100EA000711D811D0C945C070C94770797F99F675F
:100EB00080E870E060E00895882371F4772321F0E2
:100EC0009850872B762F07C0662311F499270DC001
:100ED0009051862B70E060E02AF09A95660F771F9C
:100EE000881FDAF7880F9695879597F908959F3FA1
:100EF00031F0915020F4879577956795B795880FD5
:100F0000911D9695879597F908959FEF80EC089528
:100F100000240A94161617061806090608950024D8
:100F20000A9412161306140605060895092E039452
:100F3000000C11F4882352F0BB0F40F4BF2B11F4C6
:100F400060FF04C06F5F7F4F8F4F9F4F089557FD25
:100F50009058440F551F59F05F3F71F04795880F27
:100F600097FB991F61F09F3F79F0879508951216BE
:100F700013061406551FF2CF4695F1DF08C016166A
:100F800017061806991FF1CF86957105610508941B
:100F900008950E94AF07A0F0BEE7B91788F4BB27F9
:100FA0009F3860F41616B11D672F782F8827985F39
:100FB000F7CF869577956795B11D93959639C8F3C8
:100FC0000895E894BB2766277727CB0197F9089502
:100FD0000E94FB070C9496070E94880738F00E9435
:100FE0008F0720F0952311F00C9456070C94850779
:100FF00011240C94E2070E94A70770F3959FC1F398
:10100000950F50E0551F629FF001729FBB27F00DB6
:10101000B11D639FAA27F00DB11DAA1F649F66270B
:10102000B00DA11D661F829F2227B00DA11D621F5A
:10103000739FB00DA11D621F839FA00D611D221F14
:10104000749F3327A00D611D231F849F600D211DF8
:10105000822F762F6A2F11249F5750409AF0F1F07B
:1010600088234AF0EE0FFF1FBB1F661F771F881FE4
:1010700091505040A9F79E3F510580F00C945607BF
:101080000C94E2075F3FE4F3983ED4F3869577959E
:101090006795B795F795E7959F5FC1F7FE2B880F8A
:1010A000911D9695879597F9089597FB072E16F44D
:1010B000009407D077FD09D00E94690807FC05D08D
:1010C0003EF4909581959F4F0895709561957F4F5F
:1010D0000895AA1BBB1B51E107C0AA1FBB1FA6177F
:1010E000B70710F0A61BB70B881F991F5A95A9F7D1
:0E10F00080959095BC01CD010895F894FFCF36
:1010FE0039014601510157010401010041204220EE
:10110E004F20552054004D6164652062792045675B
:10111E006F720034313733343200417072696C2093
:10112E0032303137004C555800444953504C4159D8
:10113E002044454D4F004C756D696E6F736974791F
:0C114E000041626F7574004C6F676F0009
:00000001FF
